:020000040800F2
:10000000F0570020290300088D2F0008F12C00086C
:10001000892F00085B060008813E000800000000F0
:10002000000000000000000000000000690200085D
:100030007708000800000000C5020008AD34000881
:100040004303000843030008430300084303000878
:1000500043030008912F00084303000843030008EE
:100060004303000843030008430300084303000858
:100070004303000843030008430300084303000848
:100080003D0700084D07000843030008430300082C
:1000900043030008610600087106000843030008D6
:1000A0004303000843030008430300084303000818
:1000B0008D3500084303000843030008430300088C
:1000C00043030008430300084303000843030008F8
:1000D00043030008B13C0008913D0008713E000850
:1000E00043030008430300084303000843030008D8
:1000F00043030008430300084303000843030008C8
:1001000043030008430300084303000843030008B7
:1001100043030008430300084303000843030008A7
:1001200043030008430300085D0700084303000879
:100130004303000800000000000000004303000823
:1001400043030008810600089106000843030008E5
:100150004303000843030008430300084303000867
:100160004303000843030008430300084303000857
:1001700043030008430300080000000000000000E3
:10018000430300084303000800F002F800F05CF8A5
:100190000AA090E8000C82448344AAF10107DA45E2
:1001A00001D100F051F8AFF2090EBAE80F0013F0D8
:1001B000010F18BFFB1A43F00103184790610000BC
:1001C000B06100000A444FF0000C10F8013B13F03E
:1001D000070408BF10F8014B1D1108BF10F8015BA0
:1001E000641E05D010F8016B641E01F8016BF9D193
:1001F00013F0080F1EBF10F8014BAD1C0C1B09D1EA
:100200006D1E58BF01F801CBFAD505E014F8016B5B
:1002100001F8016B6D1EF9D59142D6D370470000ED
:100220000023002400250026103A28BF78C1FBD8FF
:10023000520728BF30C148BF0B6070471FB506F09A
:100240003EF81FBD10B510BD00F0D0F91146FFF704
:10025000F5FF03F083FE00F0EEF903B4FFF7F2FFC1
:1002600003BC00F0F3F900002C4B19680868B0E8F3
:10027000F04F80F30988BFF36F8F4FF0000080F3D9
:10028000118870470000000008480068006880F38B
:1002900008884FF0000080F3148862B661B6BFF39F
:1002A0004F8FBFF36F8F00DF00BF00BF08ED00E08E
:1002B000DFF80C00016841F470010160704700BF75
:1002C00088ED00E0EFF30980BFF36F8F134B1A68DE
:1002D0001EF0100F08BF20ED108A20E9F04F1060CB
:1002E00009B44FF0500080F31188BFF34F8FBFF374
:1002F0006F8F04F091FF4FF0000080F3118809BC6C
:1003000019680868B0E8F04F1EF0100F08BFB0EC95
:10031000108A80F30988BFF36F8F7047FC040020B8
:10032000EFF30580704700000948804709480047FF
:10033000FEE7FEE7FEE7FEE7FEE7FEE7FEE7FEE795
:10034000FEE7FEE704480549054A064B70470000F2
:100350007935000889010008F0510020F05700208D
:10036000F0530020F053002053EA020C00F06980A3
:100370002DE9F04B4FF00006002B1FBFB3FA83F5B9
:1003800003FA05F424FA05F65E4012BF1643B2FAEA
:1003900082F502FA05F4C5F120051EBF22FA05FC1C
:1003A00044EA0C04203556EA044C4FEA144418BFC2
:1003B000641C4FF000084FF00009904271EB030CF1
:1003C00039D3002919BFB1FA81F701FA07F6B0FA5B
:1003D00080F700FA07F6C7F120071EBF20FA07FCD6
:1003E00046EA0C062037B6FBF4FCA7EB0507103FE6
:1003F00007F01F0BCBF120060CFA0BFB2CFA06F6CC
:1004000044BFB3460026202FA4BF5E464FF0000B2A
:100410005BEA060C08BF4FF0010B19EB0B09ABFBB5
:10042000027C48EB0608C01B06FB02CC0BFB03CC8E
:1004300071EB0C01C1E70B46024641464846BDE858
:10044000F08B13B54FF000004FF00001AFF30080C8
:10045000BDE81C407047032A40F2308010F0030CC6
:1004600000F0158011F8013BBCF1020F624498BF07
:1004700011F801CB00F8013B38BF11F8013BA2F1A4
:10048000040298BF00F801CB38BF00F8013B11F01F
:10049000030300F05780083AC0F0088051F8043B8D
:1004A000083A51F804CBA0E80810F5E7121D5CBF2C
:1004B00051F8043B40F8043BAFF30080D20724BF5F
:1004C00011F8013B11F801CB48BF11F8012B24BFF3
:1004D00000F8013B00F801CB48BF00F8012B704742
:1004E00002F0FF0343EA032242EA024200F05EB850
:1004F0004FF0000200B5134694469646203922BFBD
:10050000A0E80C50A0E80C50B1F12001BFF4F7AF07
:10051000090728BFA0E80C5048BF0CC05DF804EBE9
:10052000890028BF40F8042B08BF704748BF20F857
:10053000022B11F0804F18BF00F8012B7047704755
:100540007047704710B5203AC0F00B80B1E81850E2
:10055000203AA0E81850B1E81850A0E81850BFF4AD
:10056000F5AF5FEA027C24BFB1E81850A0E818504C
:1005700044BF18C918C0BDE810405FEA827C24BFA0
:1005800051F8043B40F8043B08BF7047D20728BF2E
:1005900031F8023B48BF11F8012B28BF20F8023B7D
:1005A00048BF00F8012B70474FF000020429C0F04B
:1005B000128010F0030C3FF49DAFCCF1040CBCF1A1
:1005C000020F18BF00F8012BA8BF20F8022BA1EBE7
:1005D0000C01FFF78FBF5FEAC17C24BF00F8012B3D
:1005E00000F8012B48BF00F8012B7047754600F05A
:1005F00029F8AE4605006946534620F007008546B7
:1006000018B020B5FFF79EFEBDE820404FF0000671
:100610004FF000074FF000084FF0000B21F00701EA
:10062000AC46ACE8C009ACE8C009ACE8C009ACE82D
:10063000C0098D4670470446AFF300802046FFF79F
:100640000CFE0000004870478C5100200149182022
:10065000ABBEFEE726000200704700BFFEE70000C9
:1006600010B5024800F063FB10BD00003406002006
:1006700010B5024800F05BFB10BD000034060020FE
:1006800010B5024800F053FB10BD00005C060020CE
:1006900010B5024800F04BFB10BD00005C060020C6
:1006A00030B58BB0054623492868096888421AD1BD
:1006B00000200690079001200890002001900290F1
:1006C000039004900590012009900A9001A9284602
:1006D00000F0C2F9284600F0F4FD0221284600F09F
:1006E000FBF8044620E014492868096888421BD1B9
:1006F0000F20069000200790012008900020019014
:100700000290039004900120059009900F200A9018
:1007100001A9284600F0A0F9284600F0D2FD1021DA
:10072000284600F0D9F804460CB100F0A5F80BB04B
:1007300030BD0000340600205C06002010B50248E1
:1007400000F060FE10BD0000B007002010B50248A8
:1007500000F058FE10BD00001008002010B502483F
:1007600000F050FE10BD0000500700200146087840
:1007700010381823B0FBF3F20848805CC865032AE0
:1007800005D908686FF30900001D886503E0086853
:100790006FF309008865886D7047000010630008DA
:1007A000014600208A6A8B69CBB932B1012A0DD08B
:1007B000022A03D0032A10D10EE000BFCB6A03F057
:1007C0008073B3F1807F00D1012007E0CB6AB3F1E1
:1007D000C07F00D1012001E000E000BF34E08B6960
:1007E000B3F5005F1AD132B1012A07D0022A03D033
:1007F000032A11D10AE000BF01200EE0CB6A03F00A
:100800008073B3F1807F00D1012006E0CB6AB3F1A1
:10081000C07F00D1012000E000BF15E032B1012A05
:1008200005D0022A04D0032A0CD103E000BF00BF88
:10083000012008E0CB6A03F08073B3F1807F00D120
:10084000012000E000BF00BF704730B50468246895
:1008500024F4802405682C60046863608468402C5C
:1008600004D10468A2600468E16003E00468A16048
:100870000468E26030BD704772B600BFFEE700005A
:1008800010B52DED028BB0EE408AF0EE608A9FED40
:10089000100B53EC102B51EC180B05F069FC00D237
:1008A0000EE09FED0B0B53EC102B51EC180B05F0E9
:1008B000CFFB05D851EC180B05F0B2FB41EC180B3F
:1008C000B0EE480AF0EE680ABDEC028B10BD0000E5
:1008D000000000000000000010B5024692F8203031
:1008E000012B01D0022B06D110684069084314681F
:1008F0006061002010BD506A40F4802050620120E9
:10090000F8E7F0B504460D461E4694F820702068BE
:100910008368A86800B900E000BF012F01D0022F52
:100920007CD103F0806030B903F0006018B903F0A7
:100930008050002873D0C3F30161022905D9606A91
:1009400040F4000060620120F0BD0120884030606A
:10095000A86860B9B5F800C0E86840EA4C5C206857
:1009600000F5C07000EB0110C0F800C00FE0D5E941
:1009700001C040EACC00D5F80CC040EA0C00D4F825
:1009800000C00CF5C07C0CEB011CCCF80000D5F8C5
:1009900010C0206800F5C07000EB0110C0F804C062
:1009A000287D01280ED1206800F5C07000EB0110F1
:1009B000406840F4807C206800F5C07000EB0110B6
:1009C000C0F804C0D079000692F806C040EA0C4096
:1009D00092F805C040EA0C2C10794CEA000C206813
:1009E00000F5C07000EB0110C0F80CC0D078000614
:1009F00092F802C040EA0C4092F801C040EA0C2094
:100A000092F800C040EA0C00D4F800C00CF5C07C9D
:100A10000CEB011CCCF80800206801E016E00FE0A8
:100A200000F5C07000EB0110006840F0010C206878
:100A300000F5C07000EB0110C0F800C0002083E793
:100A4000606A40F40010606201207DE7606A40F453
:100A500080206062012077E7F0B504460A462168ED
:100A600094F82050012D01D0022D7ED1424901F58C
:100A70000071086840F001000860086820F47C50AC
:100A800008600868566A40EA06200860107D00F099
:100A90001F06012000FA06F3C8699843C861A1F552
:100AA0000071D069C8B9D1F80C029843C1F80C02A2
:100AB000908880B2968940EA064601F51070576921
:100AC00040F83760108880B2168940EA064601F582
:100AD0001070576900EBC7004660D069012819D132
:100AE000D1F80C021843C1F80C02908880B2168825
:100AF00040EA064601F51070576940F83760908962
:100B000080B2168940EA064601F51070576900EB7D
:100B1000C7004660906928B9D1F804029843C1F82B
:100B2000040204E0D1F804021843C1F80402106979
:100B300028B9D1F814029843C1F8140204E0D1F89E
:100B400014021843C1F81402106A012804D1D1F824
:100B50001C021843C1F81C02D1F8000220F0010069
:100B6000C1F800020020F0BDFFE7606A40F4802079
:100B700060620120F7E7000000640040704770B534
:100B8000044694F82050012D01D0022D7DD151B999
:100B90002068C06800F0030080B9606A40F400106B
:100BA0006062012070BD2068006900F0030028B970
:100BB000606A40F4001060620120F3E7206800F5ED
:100BC000D87000EB0110006800F00400906090689D
:100BD00040B9206800F5D87000EB01100068400DA6
:100BE000106007E0206800F5D87000EB0110006885
:100BF000C0085060206800F5D87000EB0110006854
:100C000000F00200D060206800F5D87000EB011001
:100C1000406800F00F001061206800F5D87000EB0C
:100C20000110406800F47F40000A9061206800F5E0
:100C3000D87000EB01104068000C5061206800F58E
:100C4000D87000EB011080681870206800F5D8702B
:100C500000EB0110806800F47F40000A58702068A3
:100C600000F5D87000EB0110806800F47F00000CE4
:100C70009870206800F5D87000EB01108068000EB5
:100C8000D870206800F5D87000E02FE000EB01106C
:100C9000C0681871206800F5D87000EB0110C068BA
:100CA00000F47F40000A5871206800F5D87000EB0E
:100CB0000110C06800F47F00000C9871206800F5F6
:100CC000D87000EB0110C068000ED87131B92068EF
:100CD000C06840F020002668F06005E020680069E8
:100CE00040F020002668306100205BE7606A40F435
:100CF00080206062012055E70146002091F8202005
:100D0000012A01D0022A11D10B689B6803F080638D
:100D100003B1401C0B689B6803F0006303B1401CE7
:100D20000B689B6803F0805303B1401C70472DE9AA
:100D3000F05F04460025206846692068D0F80490DA
:100D4000206887682068D0F80CA02068D0F810B020
:100D50002068D0F8188006F00100002855D007F070
:100D60000100C0B101202168886007F0020018B1BD
:100D7000204600F0D6FA0EE007F0040010B145F46A
:100D8000006508E007F0080010B145F4805502E066
:100D9000204600F0C5FA07F48070C8B14FF48070A7
:100DA0002168886007F4007018B1204600F0BBFA93
:100DB0000EE007F4806010B145F4005508E007F438
:100DC000006010B145F4804502E0204600F0AAFA28
:100DD00007F48030C8B14FF480302168886007F490
:100DE000003018B1204600F0A0FA0EE007F4802091
:100DF00010B145F4004508E007F4002010B145F4B7
:100E0000803502E0204600F08FFA06F0080038B185
:100E10000AF0100020B145F4007510202168C86068
:100E200006F0040040B10AF0080028B1082021684B
:100E3000C860204600F01EFA06F0020038B12068B3
:100E4000C06800F0030010B1204600F015FA06F06B
:100E5000400038B10BF0100020B145F4806510203F
:100E60002168086106F0200040B10BF0080028B1AD
:100E7000082021680861204600F020FA06F01000E2
:100E800038B12068006900F0030010B1204600F07E
:100E900016FA06F4003040B109F0100028B1102015
:100EA00021684860204600F00BFA06F4803040B11B
:100EB00009F0080028B1082021684860204600F0A9
:100EC00035FA06F4004088B309F0040078B306F45C
:100ED000807020B108F0010008B145F0010506F46A
:100EE000007020B108F0020008B145F0020506F4D8
:100EF000806020B108F0040008B145F0040506F454
:100F00000060A0B108F0700088B108F070004028BF
:100F100017D006DC10280BD020280CD0302819D18F
:100F20000CE0502810D0602814D110E01DE019E02A
:100F300045F008050FE045F010050CE045F02005F0
:100F400009E045F0400506E045F0800503E045F482
:100F5000807500E000BF00BF2068806920F070004D
:100F6000216888610420216848602DB1606A2843A7
:100F700060622046FFF702FEBDE8F09F70B50446B0
:100F80000CB9012070BD94F8200010B9204600F083
:100F9000AFF82068006840F001002168086000F0A8
:100FA00025FD05460DE000F021FD401B0A2808D96B
:100FB000606A40F400306062052084F8200001205F
:100FC000E0E72068406800F001000028EBD02068CE
:100FD000006820F002002168086000F007FD054667
:100FE0000DE000F003FD401B0A2808D9606A40F4B8
:100FF00000306062052084F820000120C2E72068EC
:10100000406800F002000028EBD1207E012806D1C4
:101010002068006840F080002168086005E02068D2
:10102000006820F0800021680860607E012806D1F9
:101030002068006840F040002168086005E02068F2
:10104000006820F0400021680860A07E012806D1D9
:101050002068006840F020002168086005E02068F2
:10106000006820F0200021680860E07E012806D199
:101070002068006820F010002168086005E0206802
:10108000006840F0100021680860207F012806D128
:101090002068006840F008002168086005E02068CA
:1010A000006820F0080021680860607F012806D1F0
:1010B0002068006840F004002168086005E02068AE
:1010C000006820F0040021680860D4E902010843A8
:1010D00021690843616908436168491E0843216822
:1010E000C86100206062012084F82000002049E7E8
:1010F00010B586B00446142101A8FFF7F9F9574945
:10110000206888424AD156480068401C544908600B
:101110000846006801280FD100BF00200090514808
:10112000006840F000704F4908600846006800F011
:101130000070009000BF00BF00BF00200090494831
:101140001038006840F00100464910390860084630
:10115000006800F00100009000BF00BF4FF4C050D5
:1011600001900220029000200390032004900920A7
:10117000059001A93C4800F039FB0022052115200B
:1011800000F000FD152000F0EDFC002205211620E6
:1011900000F0F8FC162000F0E5FC5DE03349206823
:1011A000884259D100BF002000902E48006840F0CE
:1011B00080602C4908600846006800F0806000905C
:1011C00000BF00BF26480068401C2549086008464B
:1011D000006801280FD100BF00200090214800685E
:1011E00040F000701F4908600846006800F0007079
:1011F000009000BF00BF00BF0020009019481038C9
:10120000006840F00200174910390860084600687D
:1012100000F00200009000BF00BF4FF4405001906A
:1012200002200290002003900320049009200590E2
:1012300001A90F4800F0DAFA00220521412000F050
:10124000A1FC412000F08EFC00220521422000F08C
:1012500099FC422000F086FC06B010BD00640040FE
:10126000E8040020403802400000024000680040CE
:10127000000402407047000010B58AB004460E49D1
:1012800020680968884215D100200190029001ABC6
:1012900003AA00212046FFF772FC0398B0F5007FF7
:1012A00007D90398B0F5027F03D801A9039801F08C
:1012B000A1FE00BF0AB010BD340600207047704781
:1012C000704770B5044694F82000012822D102200E
:1012D00084F820002068006820F001002168086080
:1012E00000F084FB05460DE000F080FB401B0A285F
:1012F00008D9606A40F400306062052084F820005C
:10130000012070BD2068406800F001000028EBD18A
:101310006062F6E7606A40F4002060620120F0E756
:10132000704770477047704770477047704770B597
:101330000446A56D00F05AFB064694F835000228D5
:1013400008D08020606500BF002084F8340000BF12
:10135000012070BD2068006820F016002168086038
:101360002068406920F0800021684861206C08B93D
:10137000A06C28B12068006820F00800216808608F
:101380002068006820F001002168086010E000F08B
:101390002DFB801B05280BD920206065032084F8D5
:1013A000350000BF002084F8340000BF0320D0E7E0
:1013B0002068006800F001000028E8D194F85C1073
:1013C0003F208840A860012084F8350000BF00203D
:1013D00084F8340000BF00BFBBE7014691F8350038
:1013E000022803D08020486501207047052081F83D
:1013F00035000868006820F001000A6810600020CD
:10140000F3E70000F8B50446002000908C4800681F
:101410004FF41651B0FBF1F7A56D2E6894F85C10EF
:1014200008208840304098B12068006800F004002F
:1014300070B12068006820F004002168086094F80A
:101440005C1008208840A860606D40F00100606575
:1014500094F85C1001208840304068B120684069F1
:1014600000F0800040B194F85C1001208840A86032
:10147000606D40F00200606594F85C1004208840C4
:10148000304068B12068006800F0020040B194F874
:101490005C1004208840A860606D40F00400606526
:1014A00094F85C1010208840304078B320680068C1
:1014B00000F0080050B394F85C1010208840A86039
:1014C0002068006800F4802080B12068006800F483
:1014D000002028B9206CC8B12046216C884715E04F
:1014E000A06C98B12046A16C88470FE02068006886
:1014F00000F4807028B92068006820F00800216896
:101500000860206C10B12046216C884794F85C106C
:10151000202088403040002865D02068006800F016
:10152000100000285FD094F85C1020208840A8604C
:1015300094F83500052828D12068006820F01600AE
:10154000216808602068406920F0800021684861B7
:10155000206C08B9A06C28B12068006820F0080051
:101560002168086094F85C103F208840A860012042
:1015700084F8350000BF002084F8340000BF206DDF
:1015800010B12046216D8847F8BD2068006800F43E
:10159000802080B12068006800F4002028B9606CC9
:1015A00010B12046616C88471DE0E06BD8B1204641
:1015B000E16B884717E02068006800F4807068B924
:1015C0002068006820F0100021680860012084F87D
:1015D000350000BF002084F8340000BFE06B10B17C
:1015E0002046E16B8847606D38B3606D00F0010004
:1015F000F0B1052084F835002068006820F0010073
:101600002168086000BF0098401C0090B84200D9D3
:1016100005E02068006800F001000028F3D100BF59
:10162000012084F8350000BF002084F8340000BF9A
:10163000E06C10B12046E16C884700BFA4E70000D1
:10164000F80400202DE9F0410446002500F0CEF911
:10165000074614B90120BDE8F081606A00B100BFFF
:10166000022084F8350000BF002084F8340000BF59
:101670002068006820F00100216808600AE000F09E
:10168000B5F9C01B052805D920206065032084F822
:101690003500E0E72068006800F001000028EED186
:1016A0002068056821480540D4E901010843E16844
:1016B00008432169084361690843A1690843E16956
:1016C0000843216A08430543606A042803D1D4E92A
:1016D0000B0108430543206805602068456925F033
:1016E0000705606A0543606A04280DD1A06A0543B6
:1016F000E06A48B12046FFF753F828B14020606502
:10170000012084F83500A6E7206845612046FFF7F0
:101710002DF8064694F85C103F208840B060002009
:101720006065012084F83500002094E73F8010F0C8
:101730002DE9F04704460D4616461F464FF00008B7
:10174000D4F8589000BF94F83400012802D1022048
:10175000BDE8F087012084F8340000BF94F835001C
:10176000012825D1022084F83500002060653B4621
:10177000324629462046FFF768F894F85C103F206F
:101780008840C9F808002068006840F01600216809
:101790000860206C28B12068006840F008002168CB
:1017A00008602068006840F001002168086006E0D9
:1017B00000BF002084F8340000BF4FF0020840460C
:1017C000C6E7000070B5044600F010F9064625464D
:1017D000681C10B104480078054400BF00F006F909
:1017E000801BA842FAD370BDF4040020F8B502466D
:1017F0000B460025002400200021D6E0012606FA31
:1018000001F51E6806EA0504AC4274D11E7906F0A3
:101810000306012E04D01E7906F00306022E13D112
:1018200090684F000326BE40B0434F00DE68BE40C4
:1018300030439060506801268E40B0431E79C6F355
:1018400000168E40304350601E7906F00306032ECA
:1018500009D0D0684F000326BE40B0434F009E68B9
:10186000BE403043D0601E7906F00306022E13D12D
:10187000CF0802F1200656F827004E07F70E0F2674
:10188000BE40B0434F07FF0E1E69BE403043CF0835
:1018900002F1200646F8270010684F000326BE40DC
:1018A000B0431E7906F003064F00BE40304310607F
:1018B0005E6806F44036002E76D000BF0026009603
:1018C0003C4E366846F480463A4F3E603E463668A7
:1018D00006F48046009600BF00BF374E8F0856F8CA
:1018E00027008E07370F0F26BE40B043334EB2425B
:1018F00002D1002624E057E0314EB24201D1012648
:101900001EE0304EB24201D1022619E02E4EB24204
:1019100001D1032614E02D4EB24201D104260FE07E
:101920002B4EB24201D105260AE02A4EB24201D125
:10193000062605E0284EB24201D1072600E008261F
:101940008F073F0FBE4030431B4E8F0846F82700DD
:10195000224E3068A0435E6806F4801606B120432C
:101960001E4E3060361D3068A0435E6806F40016D7
:1019700006B12043194E361D3060184E361F3068B0
:10198000A0435E6806F4003606B12043134E361FAE
:101990003060361F3068A0435E6806F4803606B1BA
:1019A00020430E4E083E3060491C1029FFF426AF3C
:1019B000F8BD0000443802400838014000000240F1
:1019C0000004024000080240000C024000100240E7
:1019D0000014024000180240001C0240083C014074
:1019E0000AB1816101E00B0483617047014800681E
:1019F00070470000EC0400200348006803490978A0
:101A00000844014908607047EC040020F4040020F9
:101A100010B50D48006840F400700B490860084696
:101A2000006840F4806008600846006840F48070F8
:101A30000860032000F0E4F80F2000F007F800F041
:101A40005FF8002010BD0000003C02402DE9F0418D
:101A500088B004460027B84600BF00200190244803
:101A6000006840F00100224908600846006800F064
:101A70000100019000BF00BF02A903A800F096F981
:101A8000069F1FB900F0BAF9054602E000F0B6F96A
:101A900045001848B5FBF0F0A0F101084FF0804078
:101AA0001549086040F2E7311348C160C0F804806E
:101AB000002101618160816100F068FC064696B9F1
:101AC0000D4800F097FC06466EB91C2000F04AF85D
:101AD000102C07D2002221461C2000F053F80748A2
:101AE000046000E00126304608B0BDE8F081000047
:101AF0004038024040420F0070080020F0040020EF
:101B000008B500BF002000901548006840F48040F0
:101B1000134908600846006800F48040009000BF48
:101B200000BF00BF00200090081F006840F08050F8
:101B3000091F08600846006800F08050009000BF50
:101B400000BF00220F21901E00F01CF8002205218A
:101B5000084600F017F8052000F004F808BD000062
:101B60004438024001460846002809DB00F01F0304
:101B700001229A4043099B0003F1E023C3F80021AE
:101B800000BF70472DE9F05F80460D4616460027DE
:101B900002F078F9074639462A46334601F0070035
:101BA000C0F1070ABAF1040F02D94FF0040A01E0AC
:101BB000C0F1070AD14600F1040ABAF1070F02D2B8
:101BC0004FF0000A01E0A0F1030AD4464FF0010AE9
:101BD0000AFA09FAAAF1010A0AEA020A0AFA0CFA4E
:101BE0004FF0010B0BFA0CFBABF1010B0BEA030BF3
:101BF0004AEA0B042146404602F04CF9BDE8F09F4A
:101C000000BF00F00702064B19684FF6FF031940AA
:101C1000044B0B4343EA0221014B196000BF70479C
:101C20000CED00E00000FA0570B504460D460CB955
:101C3000012070BD5848006800F00700A84209D292
:101C400055490D700846006800F00700A84201D011
:101C50000120EEE7207800F0020002281DD1207854
:101C600000F00400042805D14C48006840F4E0501E
:101C70004A490860207800F00800082805D1474844
:101C8000006840F46040454908604448006820F01E
:101C9000F000A168084341490860207800F0010085
:101CA000A8B36068012807D13C4808380068C0F331
:101CB0004040B8B90120BCE76068022802D06068E3
:101CC000032807D1354808380068C0F3406048B998
:101CD0000120AEE7314808380068C0F3400008B979
:101CE0000120A6E72D48006820F003006168084342
:101CF0002A490860FFF77AFE064609E0FFF776FEFC
:101D0000801B41F28831884202D9032091E707E025
:101D10002248006800F00C006168B0EB810FEDD143
:101D20001D48006800F00700A84209D91A490D7043
:101D30000846006800F00700A84201D0012078E7BB
:101D4000207800F00400042807D11448006820F42B
:101D5000E050E168084311490860207800F008006D
:101D6000082808D10D48006820F46040216940EA45
:101D7000C1000A49086000F061F808490968C1F328
:101D80000311074A515CC8400649086006480068CC
:101D9000FFF75CFE00204CE7003C024008380240A0
:101DA00018630008F8040020F00400200F220260ED
:101DB0000D4A126802F0030242600B4A126802F0F8
:101DC000F0028260084A126802F4E052C260064AD9
:101DD000126802F46042D2080261044A126802F0FA
:101DE00007020A607047000008380240003C0240C9
:101DF0000148006870470000F804002000B5FFF7B4
:101E0000F7FF04490968C1F38221034A515CC840C5
:101E100000BD0000083802402863000800B5FFF745
:101E2000E7FF04490968C1F34231034A515CC840E5
:101E300000BD000008380240286300082DE9F04783
:101E4000002400250026A1462548006800F00C006B
:101E500020B1042805D008283AD105E0DFF88490A5
:101E600039E0DFF8849036E01D48001F006800F07C
:101E70003F041B48001F006800F4800078B11A4836
:101E80001749091F0968C1F38811A0FB01700146B9
:101E9000224600233846FEF767FA05460EE0114851
:101EA0000F49091F0968C1F38811A0FB01700146A1
:101EB000224600233846FEF757FA05460848001F19
:101EC0000068C0F30140401C4600B5FBF6F902E093
:101ED000DFF8109000BF00BF4846BDE8F087000063
:101EE000083802400024F40040787D01F8B504462B
:101EF0000CB90120F8BD207800F00100002874D052
:101F0000F948006800F00C0004280DD0F64800687D
:101F100000F00C00082813D1F348001F006800F4FB
:101F20008000B0F5800F0BD1EF4808380068C0F38F
:101F30004040002859D06068002856D10120D9E7D8
:101F400000BF6068B0F5803F08D1E74808380068F6
:101F500040F48030E449083908601EE06068B0F55C
:101F6000A02F0DD1E0480838006840F48020DE49F9
:101F7000083908600846006840F4803008600CE0CA
:101F8000D9480838006820F48030D74908390860FB
:101F90000846006820F48020086000BF606890B1A7
:101FA000FFF724FD054606E0FFF720FD401B6428EF
:101FB00001D903209EE7CC4808380068C0F34040B0
:101FC0000028F1D011E0FFF711FD054606E0FFF70C
:101FD0000DFD401B642801D903208BE7C248083857
:101FE0000068C0F340400028F1D1207800F00200E2
:101FF00002285FD1BC48006800F00C0058B1BA4814
:10200000006800F00C0008281CD1B748001F0068C9
:1020100000F48000B0B9B44808380068C0F340004C
:1020200020B1E068012801D0012063E7AE480838FC
:10203000006820F0F800216940EAC100AA49083987
:10204000086037E0E06800B30120A8490860FFF7A6
:10205000CDFC054606E0FFF7C9FC401B022801D96C
:10206000032047E7A04808380068C0F34000002874
:10207000F1D09D480838006820F0F800216940EA56
:10208000C10099490839086014E0002097490860A8
:10209000FFF7ACFC054606E0FFF7A8FC401B022852
:1020A00001D9032026E7904808380068C0F34000B3
:1020B0000028F1D1207800F0080008282CD16069B0
:1020C000A8B101208A490860FFF790FC054606E0A8
:1020D000FFF78CFC401B022801D903200AE7824845
:1020E0006C300068C0F340000028F1D014E00020FC
:1020F0007F490860FFF77AFC054606E0FFF776FCAB
:10210000401B022801D90320F4E677486C300068B0
:10211000C0F340000028F1D1207800F0040004282A
:1021200070D1002770483830006800F0805090B9B6
:1021300000BF002000906C483830006840F08050AC
:102140006949383108600846006800F08050009006
:1021500000BF00BF01276748006800F48070B0B975
:102160006448006840F4807062490860FFF73EFCF4
:10217000054606E0FFF73AFC401B022801D9032080
:10218000B8E65C48006800F480700028F2D000BF18
:10219000A068012808D154486830006840F0010068
:1021A0005149683108601DE0A06805280DD14E48EE
:1021B0006830006840F004004B4968310860084608
:1021C000006840F0010008600CE047486830006893
:1021D00020F001004449683108600846006820F09A
:1021E0000400086000BFA068A8B1FFF7FFFB054628
:1021F00009E0FFF7FBFB401B41F28831884202D91E
:10220000032077E626E0384868300068C0F34000D5
:102210000028EED013E0FFF7E9FB054608E0FFF7E2
:10222000E5FB401B41F28831884201D9032061E679
:102230002D4868300068C0F340000028EFD1012F1E
:1022400007D129483830006820F0805026493831BD
:10225000086000BFA069002845D02348006800F04E
:102260000C0008285DD0A069022845D100201F4934
:102270000866FFF7BBFB054606E0FFF7B7FB401B10
:10228000022801D9032035E6174808380068C0F352
:1022900040600028F1D1D4E907010843616A40EAAF
:1022A00081110122A06AC2EB500041EA00412C20BA
:1022B000005D41EA00600C49091F086001200B49DC
:1022C0000866FFF793FB054606E0FFF78FFB401B10
:1022D000022801D903200DE6034808380068C0F33E
:1022E00040600028F1D049E0083802400000474231
:1022F000800E474200700040002021490866FFF729
:1023000075FB054606E0FFF771FB401B022801D96B
:102310000320EFE51B480068C0F340600028F2D1BD
:102320002CE0A069012800D1E4E51648001D0668EC
:10233000A069012820D006F48001E06981421BD108
:1023400006F03F01206A814216D147F6C070304046
:10235000616AB0EB811F0FD106F440310122A06AFF
:10236000C2EB5000B1EB004F06D106F070612C209B
:10237000005DB1EB006F01D00120BBE50020B9E5A5
:1023800000004742003802407047704710B50446CD
:102390000CB9012010BD94F83D0028B9002084F844
:1023A0003C00204600F025F8022084F83D00211D65
:1023B000206801F0F3F8012084F8460000BF84F89B
:1023C0003E0001213F20015540200155412001558B
:1023D00000BF00BF012084F8420043200155442083
:1023E00001554520015500BF012084F83D00002023
:1023F000D0E77047014691F83D00012801D0012047
:102400007047022081F83D000868C06840F0010074
:102410000B68D8601A4B086898421BD00868B0F166
:10242000804F17D0174B0868984213D0164B086896
:1024300098420FD0154B086898420BD0144B08688F
:10244000984207D0134B0868984203D0124B086893
:1024500098420CD10868806800F00702062A0CD068
:102460000868006840F001000B68186005E0086823
:10247000006840F001000B6818600020C0E7000011
:10248000000001400004004000080040000C004033
:10249000000401400040014000180040704710B5A2
:1024A000044620680069C0F34000D8B12068C068C5
:1024B000C0F34000B0B16FF0020021680861012054
:1024C00020772068806900F0030018B12046FFF7EC
:1024D000E5FF05E0204600F0ADF8204600F0ABF83F
:1024E0000020207720680069C0F38000D8B1206800
:1024F000C068C0F38000B0B16FF0040021680861CB
:10250000022020772068806900F4407018B12046CE
:10251000FFF7C4FF05E0204600F08CF8204600F0ED
:102520008AF80020207720680069C0F3C000D8B185
:102530002068C068C0F3C000B0B16FF00800216827
:102540000861042020772068C06900F0030018B1FA
:102550002046FFF7A3FF05E0204600F06BF8204679
:1025600000F069F80020207720680069C0F30010AF
:10257000D8B12068C068C0F30010B0B16FF010008F
:1025800021680861082020772068C06900F4407045
:1025900018B12046FFF782FF05E0204600F04AF818
:1025A000204600F048F8002020772068006900F0FD
:1025B000010058B12068C06800F0010030B16FF030
:1025C000010021680861204600F036F820680069A3
:1025D000C0F3C01058B12068C068C0F3C01030B15B
:1025E0006FF08000216808612046FFF7CDFE20686B
:1025F0000069C0F3801058B12068C068C0F3801033
:1026000030B16FF0400021680861204600F01DF8ED
:1026100020680069C0F3401058B12068C068C0F35A
:10262000401030B16FF02000216808612046FFF7AC
:10263000ACFE10BD7047704710B504462068B0F17D
:10264000804F01D1FFF7D8F910BD7047704770B5C2
:102650000446002520684069C0F3C01594F83D0089
:10266000212817D1B5B100BF00BF2168143151E84E
:10267000001F21F080002168143141E80002002A87
:10268000F3D100BF606B10B1606BFEF750FE2046C7
:1026900001F0D0F820684069C0F3801594F83E003E
:1026A000222817D1B5B100BF00BF2168143151E80D
:1026B000001F21F040002168143141E80002002A87
:1026C000F3D100BFA06B10B1A06BFEF730FE204627
:1026D00001F06AF8002070BD704700002DE9F84F46
:1026E0000446206805682068C668206847694FF07E
:1026F0000009CA4605F00F09B9F1000F0AD105F02B
:10270000200038B106F0200020B1204601F0A5F8E5
:10271000BDE8F88FB9F1000F7CD007F0010018B9BF
:1027200006F49070002875D005F0010030B106F471
:10273000807018B1206C40F00100206405F00400A6
:1027400030B107F0010018B1206C40F002002064A5
:1027500005F0020030B107F0010018B1206C40F024
:102760000400206405F0080048B106F0200010B90C
:1027700007F0010018B1206C40F008002064206CC4
:10278000002846D005F0200028B106F0200010B146
:10279000204601F062F820684069C0F3801A206C7E
:1027A00000F0080010B9BAF1000F2DD0204600F05B
:1027B000FBFF2068406900F04000402820D100BFA6
:1027C00000BF2168143151E8001F21F0400021684A
:1027D000143141E80002002AF3D100BFA06B50B1D0
:1027E0007548A16B0865A06BFEF7F7FD88B1A06B7B
:1027F000016D88470DE02046FFF76EFF09E009E014
:102800002046FFF769FF04E02046FFF765FF002040
:1028100020647DE7206B012876D105F010000028A8
:1028200072D006F010000028FAD000BF00200090FF
:1028300020680068009020684068009000BF00BFDA
:102840002068406900F0400040285ED1A06B00681D
:1028500040681FFA80F8B8F1000F54D0A08D4045B1
:1028600051DDA4F82E80A06BC069B0F5807F43D005
:1028700000BF00BF21680C3151E8001F21F48070B7
:1028800021680C3141E80002002AF3D100BF00BFEB
:1028900000BF2168143151E8001F21F001002168B8
:1028A000143141E80002002AF3D100BF00BF00BF8D
:1028B0002168143151E8001F21F0400021681431D3
:1028C00041E80002002AF3D100BF202084F83E0036
:1028D0000020206300BF00BF21680C3151E8001FB9
:1028E00021F0100021680C3141E80002002AF3D1E8
:1028F00000BFA06BFEF71BFDA08DE28D801A81B298
:102900002046FFF7A3FE03E740E0A08DE18D401ACB
:102910001FFA80F8E08DC0B3B8F1000F35D000BFCA
:1029200000BF21680C3151E8001F21F4907021682C
:102930000C3141E80002002AF3D100BF00BF00BF04
:102940002168143151E8001F21F001002168143181
:1029500041E80002002AF3D100BF202084F83E00A5
:102960000020206300BF00BF21680C3151E8001F28
:1029700021F0100021680C3141E80002002AF3D157
:1029800000BF41462046FFF761FEC1E605F080002A
:1029900030B106F0800018B1204601F059F9B7E6D1
:1029A00005F0400030B106F0400018B1204600F0BC
:1029B00031FFADE600BFABE67536000810B5044642
:1029C0000CB9012010BDA06900B100E000BF94F86F
:1029D0003D0028B9002084F83C00204600F028F88B
:1029E000242084F83D002068C06820F4005021684D
:1029F000C860204600F0AEFF2068006920F49040D7
:102A0000216808612068406920F02A002168486137
:102A10002068C06840F400502168C860002020642D
:102A2000202084F83D0084F83E000020CAE7000022
:102A300010B586B00446142101A8FDF759FD8F4951
:102A40002068884259D100BF002000908C4800685F
:102A500040F010008A4908600846006800F0100045
:102A6000009000BF00BF00BF0020009084481438D1
:102A7000006840F001008249143908600846006887
:102A800000F00100009000BF00BF4FF4C060019053
:102A9000022002900020039003200490072005905C
:102AA00001A97848FEF7A2FE7748784908604FF000
:102AB00000604860002175488160C1604FF480610A
:102AC00001610021416181614FF48071C161002188
:102AD00001624162FEF7B6FD08B1FDF7CDFE00BF11
:102AE0006A48A063846300BF002205212520FFF708
:102AF00049F82520FFF736F8BDE06549206888428F
:102B00007AD100BF002000905D48001F006840F4AB
:102B100000305B49091F08600846006800F4003077
:102B2000009000BF00BF00BF002000905448143840
:102B3000006840F0010052491439086008460068F6
:102B400000F00100009000BF00BF0C2001900220A7
:102B5000029001200390032004900720059001A912
:102B60004848FEF743FE4B484B4908604FF0006071
:102B70004860002148488160C1604FF48061016174
:102B80000021416181614FF48071C16100210162C6
:102B90004162FEF757FD08B1FDF76EFE00BF3E48EB
:102BA000A063846300BF3B4818303C4908604FF085
:102BB000006048604021394881600021C1604FF4C5
:102BC00080610161002141618161C16101624162F5
:102BD000FEF738FD08B1FDF74FFE00BF2F486063D8
:102BE000846300BF002205212620FEF7CBFF2620AC
:102BF000FEF7B8FF3FE0FFE72949206888423AD155
:102C000000BF002000901E48001F006840F4802094
:102C10001B49091F08600846006800F480200090E6
:102C200000BF00BF00BF00200090154814380068A6
:102C300040F002001249143908600846006800F0AC
:102C40000200009000BF00BF4FF4406001900220DE
:102C5000029000200390032004900720059001A912
:102C60001048FEF7C3FD002205212720FEF78AFF4A
:102C70002720FEF777FF06B010BD000000100140CE
:102C800044380240000002404064024050070020E7
:102C90000044004088600240B00700201008002077
:102CA000004800400004024070B504460D46164638
:102CB00094F83E00202816D105B10EB9012070BD50
:102CC00000BF94F83C00012801D10220F7E7012061
:102CD00084F83C0000BF002020633246294620468D
:102CE00000F04EFFEBE70220E9E7704770477047BE
:102CF00000BFFEE710B50E480E4908600620486088
:102D000000210C488160C1604FF4403101614FF4F3
:102D1000801141610021017641768176C17601778B
:102D20004177FEF72BF908B1FDF7A6FD10BD0000B5
:102D3000006400403406002010B50E480E490860BB
:102D40000620486000210C488160C1604FF440318A
:102D500001614FF480114161002101764176817655
:102D6000C17601774177FEF709F908B1FDF784FDD7
:102D700010BD0000006800405C06002008B500BFE0
:102D8000002000901A48006840F4001018490860BC
:102D90000846006800F40010009000BF00BF00BFAC
:102DA000002000900846006840F480000860084653
:102DB000006800F48000009000BF00BF00220521E1
:102DC0001020FEF7DFFE1020FEF7CCFE00220521CA
:102DD0001120FEF7D7FE1120FEF7C4FE00220521C8
:102DE0003A20FEF7CFFE3A20FEF7BCFE08BD0000F9
:102DF0003038024010B5074A0021074801F06EF94B
:102E000006490860064A0021064801F067F90649AC
:102E1000086010BDC862000869340008E0040020A2
:102E2000EC62000875340008E404002000B587B0A7
:102E3000142102A8FDF75CFB00BF0020019026488A
:102E4000006840F08000244908600846006800F0EF
:102E50008000019000BF00BF00BF00200190084625
:102E6000006840F0010008600846006800F00100BA
:102E7000019000BF00BF00BF00200190084600681D
:102E800040F0020008600846006800F0020001906F
:102E900000BF00BF00BF002001900846006840F05E
:102EA000040008600846006800F00400019000BFBC
:102EB00000BF002289150948FEF792FD4FF480708B
:102EC00002900120039000200490059002A903487D
:102ED000FEF78CFC07B000BD30380240000802400D
:102EE00010B50B480B4908604FF4E13048600021F1
:102EF00008488160C16001610C214161002181614C
:102F0000C161FFF75BFD08B1FDF7B6FC10BD000025
:102F1000001001408406002010B50B480B490860E2
:102F20004FF4E1304860002108488160C1600161D0
:102F30000C21416100218161C161FFF73FFD08B1B2
:102F4000FDF79AFC10BD000000440040C8060020B8
:102F500010B50B480B4908604FF4E1304860002180
:102F600008488160C16001610C21416100218161DB
:102F7000C161FFF723FD08B1FDF77EFC10BD000025
:102F8000004800400C07002000BFFEE700BFFEE73E
:102F900070472DE9F04387B007460C4615461E469C
:102FA0004FF001084FF000090020039004900195B4
:102FB00005963846FDF7A0FE00F0FF0904E038460C
:102FC000FDF79AFE00F0FF09B9F1000FF7D00120DC
:102FD000FEF7F8FB0123224601A93846FDF791FCD4
:102FE0008046B8F1000F03D0022007B0BDE8F0839F
:102FF0000020FAE770B505460E46012413E004F5FB
:103000000070A8420ED1601EC0EBC0000849084401
:1030100031680160B1888180B1798171E0B200F0DE
:1030200039F870BD641C092CE9DB00BFF9E700002A
:103030009C05002010B5014600204A1EC2EBC202CA
:10304000134B1A4492780123B3EBE21F11D14A1EAD
:10305000C2EBC2020E4B1A44D3784A1EC2EBC20224
:103060000B4C2244927803EB0222A2F57F40FF38FA
:103070000DE04A1EC2EBC202054B1A44D3784A1E29
:10308000C2EBC202024C2244927803EB022010BD34
:103090009C05002010B588B00146481EC0EBC00258
:1030A0001F4B1A445278C0EBC0031D4CE35C02EB8B
:1030B00003224DF820205DF820201A4B53F82030D1
:1030C000D21AB2F5805F09DB174A52F82020A2F528
:1030D000F852FF3A144B43F8202011E05DF820200D
:1030E000104B53F82030D21A12F5805F08DC0E4ADC
:1030F00052F8202041F6FF731A440B4B43F820206E
:103100005DF82020074B43F82020074A52F8202082
:103110005DF820301A44054B43F8202008B010BD5C
:103120009C05002014060020F4050020D405002092
:1031300070B505460C46012C3ADB082C38DC00261D
:1031400000BF1C48854201DC054604E042F21070D5
:10315000854200DB0546042C0BDC4FF40076C5F3FA
:1031600007216000801E144A11546000401E15544F
:103170000CE040F2FF16201FC4B2C5F30721600027
:10318000801E0E4A11546000401E1554B6F5007F93
:1031900006D1B2B2082308490948FFF7FAFE05E054
:1031A000B2B2082305490648FFF7F3FE002070BDC0
:1031B0000120FCE7F0D8FFFFD4040020CC0400205D
:1031C0003406002070B52DED068B06460D46681EB0
:1031D000C4B200EE106AB8EEC00AA14800EB841039
:1031E00080ED000AE8B2FFF725FF00EE100AB8EE06
:1031F000C00A9B4800EB841080ED010A984800EB60
:10320000841090ED020A964800EB841080ED030ACA
:10321000934800EB841090ED000A914800EB841075
:10322000D0ED010A30EE600A8D4800EB841080ED8D
:10323000020A8B4800EB841090ED0E0A10EE101A73
:10324000084602F0CBFF41EC180B854800EB8410D8
:1032500090ED020A10EE101A084602F0BFFF41EC92
:103260001A0BB0EE4A0AF0EE6A0AFDF709FBB0EE5F
:10327000409AF0EE609A53EC182B51EC190B02F0C7
:10328000E7FE06D29FED770A754800EB841080EDCB
:10329000020A734800EB841090ED040A704800EBBA
:1032A0008410D0ED020A30EE200A6D4800EB841045
:1032B00080ED040A6A4800EB841090ED040A684827
:1032C00000EB8410D0ED0F0AB4EEE00AF1EE10FA34
:1032D00005DB634800EB841090ED0F0A1DE06048A9
:1032E00000EB841090ED040A5D4800EB8410D0EDF3
:1032F0000F0AF1EE600AB4EEE00AF1EE10FA07D818
:10330000574800EB841090ED0F0AB1EE400A04E03C
:10331000534800EB841090ED040A514800EB8410F0
:1033200080ED040A4E4800EB841090ED050A4C48ED
:1033300000EB8410D0ED020A20EE200A484800EB92
:10334000841080ED0A0A464800EB841090ED060ACE
:10335000434800EB8410D0ED040A20EE200A4048D8
:1033600000EB841080ED0B0A3D4800EB841090EDDB
:10337000020A3B4800EB8410D0ED030A30EE600AED
:10338000374800EB8410D0ED070A20EE200A3448BD
:1033900000EB841080ED0C0A314800EB841090EDB6
:1033A0000A0A2F4800EB8410D0ED0B0A30EE200AF9
:1033B0002B4800EB8410D0ED0C0A30EE200A284890
:1033C00000EB841080ED0D0A254800EB8410D0ED51
:1033D0000D0A234800EB841090ED080AB8EEC00AED
:1033E000F4EEC00AF1EE10FA07DB1D4800EB841082
:1033F00090ED080AB8EEC00A1DE0194800EB8410F1
:10340000D0ED0D0A164800EB841090ED090AB8EED5
:10341000C00AF4EEC00AF1EE10FA07D8104800EB2B
:10342000841090ED090AB8EEC00A04E00C4800EBE5
:10343000841090ED0D0A0A4800EB841080ED0D0A0F
:10344000E9B2074A02EB841292ED0D0ABDEEC00A02
:1034500010EE100AFFF76CFEBDEC068B70BD00008D
:10346000C40000200000000000BF012000F0E0FDCB
:10347000FBE7000000BF00F0A7FD0A2000F0D8FD28
:103480000948007830B108480078032807D100F0D7
:10349000A7FD04E00448007808B900F0B7FD01205A
:1034A00000F0C6FDE7E70000DC04002010B54FF097
:1034B000E020006902F05EFB012801D001F0A8FFC6
:1034C00010BD000000B593B0302107A8FDF710F83B
:1034D000142102A8FDF70CF800BF00200190244839
:1034E000006840F08050224908600846006800F0FB
:1034F0008050019000BF00BF00BF002001901D4818
:10350000006840F480401B4908600846006800F4E9
:103510008040019000BF00BF012007900004089088
:1035200002200D9041050E9119210F914FF4A871C1
:103530001091022111910421129107A8FEF7D6FCE7
:1035400008B1FDF799F90F200290022003900020A6
:1035500004904FF4A05005904FF480500690052140
:1035600002A8FEF761FB08B1FDF786F913B000BDB4
:1035700040380240007000400348006840F470008A
:10358000014908607047000088ED00E010B502486E
:10359000FEF785FF10BD00007008002010B502681E
:1035A000294B98420ED0B0F1804F0BD0274B984258
:1035B00008D0274B984205D0264B984202D0264B84
:1035C000984203D122F070024B681A431E4B984276
:1035D00020D0B0F1804F1DD01C4B98421AD01C4B0C
:1035E000984217D01B4B984214D01B4B984211D0D5
:1035F0001A4B98420ED01A4B98420BD0194B984256
:1036000008D0194B984205D0184B984202D0184B5D
:10361000984203D122F44072CB681A4322F080030F
:103620004C6943EA040202608B68C3620B688362E0
:10363000054B984202D0084B984201D10B690363B5
:103640000123436110BD0000000001400004004060
:1036500000080040000C0040000401400040014010
:10366000004401400048014000180040001C004098
:103670000020004070B50546AC6B0020E085E0847A
:103680002046FFF729F870BD70B506460025B46BDB
:1036900020684069C0F3C01594F83D00212805D189
:1036A00025B10020E084204600F0C4F8206840697D
:1036B000C0F3801594F83E00222805D125B10020E2
:1036C000E085204600F070F8206C40F01000206487
:1036D0002046FFF701F870BD70B50546AC6B286851
:1036E000006800F48070002842D1E08500BF00BF70
:1036F00021680C3151E8001F21F4807021680C31E1
:1037000041E80002002AF3D100BF00BF00BF2168DA
:10371000143151E8001F21F001002168143141E803
:103720000002002AF3D100BF00BF00BF216814319E
:1037300051E8001F21F040002168143141E80002E7
:10374000002AF3D100BF202084F83E00206B01281E
:103750000ED100BF00BF21680C3151E8001F21F0DD
:10376000100021680C3141E80002002AF3D100BFAB
:10377000206B012804D1A18D2046FEF767FF02E0EF
:103780002046FFF7B2FA70BD70B50546AC6B206BF2
:10379000012805D1A08D41082046FEF757FF02E021
:1037A0002046FFF7A3FA70BD00BF00BF02680C32CD
:1037B00052E8002F22F4907102680C3242E80013A4
:1037C000002BF3D100BF00BF00BF0268143252E8E3
:1037D000002F22F001010268143242E80013002B8E
:1037E000F3D100BF016B01290ED100BF00BF0268F9
:1037F0000C3252E8002F22F0100102680C3242E82D
:103800000013002BF3D100BF202180F83E100021CF
:103810000163704710B504462068C06820F040007E
:103820002168C860202084F83D002046FFF75FFA39
:10383000002010BD00BF00BF02680C3252E8002F0C
:1038400022F0C00102680C3242E80013002BF3D1D1
:1038500000BF202180F83D107047F8B5044694F869
:103860003E00222873D1A068B0F5805F0CD120699A
:1038700050B90025A66A20684068C0F3080030806F
:10388000A06A801CA06215E0A56A0026A068B0F5B9
:10389000805F03D0A06828B9206918B92068406803
:1038A000287004E02068406800F07F002870A06A5B
:1038B000401CA062E08D401E80B2E085002844D10B
:1038C0002068C06820F020002168C8602068C068B7
:1038D00020F480702168C8602068406920F00100F1
:1038E00021684861202084F83E00206B012826D101
:1038F0000020206300BF00BF21680C3151E8001F89
:1039000021F0100021680C3141E80002002AF3D1B7
:1039100000BF2068006800F0100010280AD100BF26
:1039200000200090206800680090206840680090A7
:1039300000BF00BFA18D2046FEF788FE02E02046B2
:10394000FFF7D3F90020F8BD01E00020FBE70220DB
:10395000F9E700002DE9F84F04462068006920F4DB
:103960004050E1680843216808612169A068084364
:1039700061690843E169084300902068C06849F222
:103980000C618843009908432168C8602068406939
:1039900020F44070A1690843216848617649206895
:1039A000884203D075492068884203D1FEF736FA71
:1039B000814602E0FEF722FA8146E069B0F5004F49
:1039C0006CD102206168A0FB015003461920A9FBBD
:1039D000007001462A463846FCF7C6FC6421B0FB5D
:1039E000F1F04FEA001A02206168A0FB01510B467A
:1039F0001920A9FB00712A463846FCF7B5FC83461E
:103A000002206168A0FB015003461920A9FB007148
:103A10002A463846FCF7A8FC6421B0FBF1F000EB25
:103A2000C00101EB0010ABEB8000322101EBC000C4
:103A30006421B0FBF1F000F0F8000AEB400A02202C
:103A40006168A0FB015003461920A9FB00700146E4
:103A50002A463846FCF788FC834602206168A0FBB2
:103A6000015003461920A9FB00712A463846FCF78D
:103A70007BFC6421B0FBF1F000EBC00101EB001016
:103A8000ABEB8000322101EBC0006421B0FBF1F010
:103A900000F007005044216888606AE004206168F3
:103AA000A0FB015003461920A9FB007001462A46DD
:103AB0003846FCF759FC824604206168A0FB01509F
:103AC00003461920A9FB007001462A463846FCF738
:103AD0004BFC6421B0FBF1F000EBC00101EB0010E6
:103AE000AAEB8000322101EB00106421B0FBF1F061
:103AF00000F0F00A04206168A0FB01700346192061
:103B0000A9FB00513A462846FCF72EFC6421B0FB85
:103B1000F1F00AEB001A04206168A0FB01510B468A
:103B20001920A9FB00712A463846FCF71DFC834684
:103B300004206168A0FB015003461920A9FB007016
:103B400001462A463846FCF70FFC6421B0FBF1F031
:103B500000EBC00101EB0010ABEB8000322101EB68
:103B600000106421B0FBF1F000F00F005044216818
:103B70008860BDE8F88F000000100140001401408B
:103B800077B581B0044615460298A062A58500204D
:103B90002064222084F83E002A48A16BC8632A488A
:103BA000A16B08642948A16BC8640020A16B08655B
:103BB00002AE32682368191D2B46A06BFDF7B8FDD5
:103BC00000BF0020009020680068009020684068D6
:103BD000009000BF00BF00BF002084F83C0000BF81
:103BE000206970B100BF00BF21680C3151E8001F8F
:103BF00041F4807021680C3141E80002002AF3D1C1
:103C000000BF00BF00BF2168143151E8001F41F020
:103C100001002168143141E80002002AF3D100BFFD
:103C200000BF00BF2168143151E8001F41F040007F
:103C30002168143141E80002002AF3D100BF0020BE
:103C400004B070BDD93600088937000889360008ED
:103C5000014691F83D00212828D18868B0F5805FA1
:103C60000BD1086948B90A6A1088C0F308000B68CC
:103C70005860086A801C086205E00B6A581C0862DC
:103C800018780B685860C88C401E80B2C88458B938
:103C90000868C06820F080000B68D8600868C068B9
:103CA00040F040000B68D860002070470220FCE71D
:103CB00038B53348FEF712FD314800680068C0F39C
:103CC0000014002C56D000BF002000902C48006843
:103CD000006800902A4800684068009000BF00BF5C
:103CE0002748FEF7B4FC274800785F2842D12648D1
:103CF000007848B923484078632805D023480078E5
:103D000010B900F0DFF835E02048007801280AD12A
:103D10001C488078692806D11A488079642802D125
:103D200000F00AF926E01948007848B915484078AB
:103D3000632805D101201549087000F0FDF819E04D
:103D400011480078012803D010480078012811D1CB
:103D50000C48807975280DD10A484078632803D132
:103D600000200A49087005E006488078692801D0DB
:103D700000F0E0FF202203490148FEF795FF38BD1F
:103D8000840600207C050020C1000020C200002025
:103D900038B53348FEF7A2FC314800680068C0F32C
:103DA0000014002C56D000BF002000902C48006862
:103DB000006800902A4800684068009000BF00BF7B
:103DC0002748FEF744FC274800785F2842D1264860
:103DD000007848B923484078632805D02348007804
:103DE00010B900F06FF835E02048007801280AD1BA
:103DF0001C488078692806D11A488079642802D145
:103E000000F09AF826E01948007848B9154840783B
:103E1000632805D101201549087000F08DF819E0DC
:103E200011480078012803D010480078012811D1EA
:103E30000C48807975280DD10A484078632803D151
:103E400000200A49087005E006488078692801D0FA
:103E500000F070FF202203490148FEF725FF38BD1E
:103E6000C80600207C050020C1000020C200002000
:103E700010B50248FEF732FC10BD00000C07002010
:103E800000BFFEE702480068C0F302207047000050
:103E90000CED00E010B5002804DB0A07130E054AFC
:103EA000135406E00A07140E034A00F00F031B1F09
:103EB000D45410BD00E400E018ED00E0EFF30580FD
:103EC00070470000012019490870194840786C2893
:103ED0000AD004DC622813D0662825D10CE07228B1
:103EE00006D0742820D10FE00120124908701BE091
:103EF00002201049087017E003200E49087013E0F3
:103F000004200C4908700FE0094800796C2803D19F
:103F100005200849087006E005480079722802D19A
:103F200006200449087000BF00BF7047C100002090
:103F30007C050020DC04002010B507484078662886
:103F400002D100F0F5FE05E003484078702801D169
:103F500000F0EFFE10BD00007C050020FDF758FDCD
:103F6000FFF7B0FAFEF762FFFEF708FFFEF7B8FFB3
:103F7000FEF7D2FFFEF7ECFFFEF7BCFEFEF7DCFE1D
:103F80000D48FCF78DFB0D48FCF78AFB0C480068D8
:103F9000C06840F010000A490968C8602022094939
:103FA0000748FEF781FE00F053F8FEF723FF00F00C
:103FB00065F800BFFEE70000340600205C06002024
:103FC000840600207C05002010B520220249034809
:103FD000FEF76AFE10BD00007C050020840600206C
:103FE00010B501214FF47A70FFF7ECF802214FF47D
:103FF0007A70FFF7E7F803214FF47A70FFF7E2F8E1
:1040000004214FF47A70FFF7DDF810BD10B50121DF
:104010000020FFF7D7F802210020FFF7D3F8032193
:104020000020FFF7CFF804210020FFF7CBF810BDE8
:1040300070B50546FFF742FF10B16FF0050404E0CC
:10404000002415B1284601F007F8204670BD000095
:1040500010B5FFF733FF10B16FF0050409E0064813
:10406000006820B9012004490860002401E04FF0F5
:10407000FF34204610BD00004C05002070B5FFF74E
:104080001DFF10B16FF005041FE011480068012802
:1040900019D100BF801F0021002804DB0A07130E7E
:1040A0000C4A135406E00A07150E0B4A00F00F03E2
:1040B0001B1FD55400BF00BF02200549086001F056
:1040C00047F8002401E04FF0FF34204670BD0000A7
:1040D0004C05002000E400E018ED00E02DE9FF476A
:1040E00080468946144600200390FFF7E7FE00282B
:1040F0004ED1B8F1000F4BD0802618258246471EBE
:1041000044B3206808B1D4F800A0A06900B1A56943
:104110002DB1382D03D8207900F0010018B100200E
:1041200004B0BDE8F087606908B160698608A068DE
:1041300040B1E0685C2805D3206918B1606908B116
:10414000012708E0A06830B9E06820B9206910B9FB
:10415000002700E00027012F0CD12169A0684B4601
:104160003246CDE9005102905146404601F0A4FC90
:1041700003900DE067B903A8B2B24B465146CDE9B2
:104180000050404601F066FC012801D00020039059
:104190000398C5E72DE9F04105460E461648076825
:1041A00016480068001D00F0CFFD681C38B936B114
:1041B00012480168091D124800F01CFE1AE07C1923
:1041C0000E4800684460BC4207D20C480168091DD3
:1041D0000C48006800F0F4FD0CE008480168091D77
:1041E0000948006800F0ECFD08480068844201D2EC
:1041F00006480460BDE8F08110050020FC040020A2
:10420000A80D002004050020000500202C0500203A
:1042100010B5044600F0FAFD24480068401C23490C
:1042200008602348006840B92148046008460068D7
:1042300001280DD100F0FCF90AE01E48006838B9E9
:104240001B480068C06AE16A884201D818480460C7
:1042500019480068401C18490860084600686064F6
:104260001649E06A0968884202D91449E06A086080
:10427000E16A01EB8101124A02EB8100211D00F08D
:10428000B9FD00F0EDFD0B48006868B10848006812
:10429000C06AE16A884207D24FF08050094908603D
:1042A000BFF34F8FBFF36F8F10BD00000C050020D0
:1042B000FC0400201805002028050020140500201B
:1042C000F808002004ED00E008B500F09FFD12485A
:1042D0000068E8B9114800F063FD114800F060FD86
:1042E0000E48104908600E480F49086000200F4B27
:1042F0000F4A102100900A2001F0A4F80649086036
:104300000846006820B10BA10348006800F068FE71
:1043100000F0A6FD08BD000040050020BC0D0020F7
:10432000D00D0020380500203C050020E40D0020C1
:10433000340E0020546D72510000000010B516E0DC
:1043400000F064FD0C48C068C468201D00F0FCFC4F
:104350000A480068401E0949086009480068401E74
:104360000749086000F07CFD204600F05FF8044833
:1043700000680028E4D110BD940D00200C05002039
:104380000805002070B504460D46206C70B1216C04
:10439000E0680144E160D4E90210884201D3216859
:1043A000E1602846226CE168FCF755F870BD2DE904
:1043B000F04104460F4615464FF00008A66B206CEE
:1043C00048B9206800282CD1A06801F08BFC8046F9
:1043D0000020A06025E07DB93946226C6068FCF7BA
:1043E0003AF8216C606808446060D4E901018842B1
:1043F00017D32068606014E03946226CE068FCF74F
:104400002AF8216CE068411AE1602168E06888427E
:1044100003D2216CA068411AE160022D01D106B1DE
:10442000761E701CA0634046BDE8F08110B50446BE
:1044300094F8590030B9206B00F030FD204600F0B0
:104440002DFD1AE094F85900012803D1204600F010
:1044500025FD12E094F85900022801D1012000E066
:10446000002050B900BF502080F31188BFF34F8F58
:10447000BFF36F8F00BF00BFFEE710BD0146084AC3
:10448000126812680AB9012200E000220A600A6874
:1044900022B9034A1268D268106800E00020704711
:1044A0003805002030B54FF47053174800F007046A
:1044B0002CB1C01D20F00700134C041B1B1B02462F
:1044C000124C22600024114D6C60D018083820F086
:1044D00007000F4C206000240D4D2D686C600C4DC2
:1044E0002D682C601146441A4C60094C24680C60FD
:1044F000084D4C682C60084D4C682C604FF000440F
:10450000064D2C6030BD00008C15002050050020A9
:1045100058050020600500205C0500206C05002087
:1045200000BFFFF70BFF064800680128F9D94FF0DC
:10453000805004490860BFF34F8FBFF36F8FF0E7DF
:10454000F808002004ED00E02DE9F04106460D4694
:1045500017469846069C0DB9246000E02760E66384
:1045600025640121204600F0DDFF84F84C80BDE881
:10457000F0812DE9F05F82460E4690469B460A9FE9
:104580000C9C4FEA8801A522206BFBF7A9FFA8F13C
:104590000100216B01EB800929F0070909F00700F0
:1045A00008B9012000E0002050B900BF502080F37E
:1045B0001188BFF34F8FBFF36F8F00BF00BFFEE7BF
:1045C00086B1002507E0715D04F134004155705D4E
:1045D00000B902E06D1C102DF5D300BF002143206F
:1045E000015502E0002084F83400382F00D337272B
:1045F000E762E76400202065201D00F0DEFB04F187
:10460000180000F0DAFB2461C7F13800A061646291
:104610000020606584F858005A465146484600F02C
:1046200071FB20600B9808B10B980460BDE8F09F07
:1046300010B5002407E004EB84010F4A02EB81006F
:1046400000F0AEFB641C382CF5D30C4800F0A8FB3E
:104650000B4800F0A5FB0B4800F0A2FB0A4800F055
:104660009FFB0A4800F09CFB044809490860044885
:104670000849086010BD0000F8080020580D00200F
:104680006C0D0020800D0020940D0020A80D00204E
:10469000000500200405002010B50146164800E082
:1046A000006803688B42FBD30246436813448B4285
:1046B00004D143684C682344436001460A464B6872
:1046C00013440468A34211D10C4C03682468A3422C
:1046D00008D04B680468646823444B6003681B6817
:1046E0000B6005E0054B1B680B6001E003680B6085
:1046F000884200D0016010BD500500205805002000
:104700002DE9F04104460D4616461F464FF00008BD
:1047100065602461B5420CD8F01BA169884202D3C0
:104720004FF0010811E0211D0948006800F048FB26
:104730000BE0BE4204D2BD4202D34FF0010804E0B8
:10474000211D0448006800F03BFB4046BDE8F081B5
:104750003C0500203805002070B5054600F056FBEA
:10476000A86B08B9012400E0002400F079FB204682
:1047700070BD70B5054600F049FBA86BE96B884237
:1047800001D1012400E0002400F06AFB204670BD46
:10479000F8B505460F461A480068C068C468201D71
:1047A00000F0D2FA94F8280000F00400E8B1A06903
:1047B00041192B463A462046FFF7A2FFD8B1002008
:1047C00003462A4601460090204601F0E7FB0646D4
:1047D00056B900BF502080F31188BFF34F8FBFF34D
:1047E0006F8F00BF00BFFEE705E094F8280020F0BF
:1047F000010084F828002046216A8847F8BD00009F
:1048000038050020F0B587B0A0E00398002811DA41
:1048100004AE56B900BF502080F31188BFF34F8F0C
:10482000BFF36F8F00BF00BFFEE7D6E90020B1687D
:10483000904700BF03980028E6DB059C606908B933
:10484000012000E0002010B9201D00F07DFA02A830
:1048500000F0DEF8054603980A2875D2DFE800F07C
:1048600009050739416306083A4200BF00BF00BF8F
:1048700000BF94F8280040F0010084F82800049854
:10488000A269811803462A462046FFF739FFF8B18E
:104890002046216A884794F8280000F00400B8B147
:1048A000002000900498A169421800231946204670
:1048B00001F074FB074657B900BF502080F3118800
:1048C000BFF34F8FBFF36F8F00BF00BFFEE700BF86
:1048D0003BE000BF94F8280020F0010084F8280095
:1048E00033E000BF94F8280040F0010084F828006D
:1048F0000498A061A06908B1012000E0002050B92F
:1049000000BF502080F31188BFF34F8FBFF36F8F2C
:1049100000BF00BFFEE7A06941192B462A4620468A
:10492000FFF7EEFE11E094F8280000F0020018B93D
:10493000204600F0B3FA05E094F8280020F00100CA
:1049400084F8280001E0FFE700BF00BF002203A9B0
:104950000448006800F084FF00287FF456AF07B0D9
:10496000F0BD000040050020F8B505460C4600F0FB
:104970004BFC684600F04CF80646009820BB44B952
:10498000B54206D801F04CFA31462846FFF700FF41
:104990001CE03CB10E480068006808B9012000E046
:1049A00000200446A91B22460A48006800F02EFB9E
:1049B00001F036FA50B94FF0805007490860BFF354
:1049C0004F8FBFF36F8F01E001F02AFAF8BD0000AE
:1049D0003C0500204005002004ED00E00A4909687C
:1049E000096809B9012100E0002121B14FF0FF3130
:1049F000064A116006E004490968C968C868034AA4
:104A00004168116070470000000500202C0500205F
:104A100070B5044601F0BEF80546074800688542B7
:104A200004D200F00BF80120206001E0002020609B
:104A300001480560284670BD480500202DE9F8436F
:104A400034E025480068C068056823480068C068ED
:104A5000C468201D00F078F92046216A884794F840
:104A6000280000F0040008B3A0694619AE4207D937
:104A700066602461211D1848006800F0A1F915E066
:104A8000002003462A4601460090204601F086FA9F
:104A9000074657B900BF502080F31188BFF34F8FEE
:104AA000BFF36F8F00BF00BFFEE700BF0A4800687A
:104AB000006808B9012000E000200028C1D00648A5
:104AC000D0F8008005480068034908600348C0F832
:104AD0000080BDE8F8830000380500203C05002078
:104AE0000E480068401C08B9012000E0002050B9C1
:104AF00000BF502080F31188BFF34F8FBFF36F8F3B
:104B000000BF00BFFEE700BF502080F31188BFF355
:104B10004F8FBFF36F8F00BF00BFFEE7700500200F
:104B200008B500BF6846FFF7A9FC04462046009977
:104B3000FFF71AFFFFF766FEF4E770B5044600F0D2
:104B400065F994F9455010E0606A08B9012000E069
:104B5000002038B904F1240001F016F918B100F072
:104B6000B5FA00E003E0681E45B2002DECDC00BFA2
:104B7000FF2084F8450000F073F900F047F994F93C
:104B8000445010E0206908B9012000E0002048B935
:104B900004F1100001F0F8F808B100F097FA681E6F
:104BA00045B200E001E0002DECDC00BFFF2084F8FE
:104BB000440000F055F970BD2DE9F04104464FF076
:104BC000000800F021FB4948006808B9FFF76AFCBB
:104BD000474800682040002870D1D4B1083404F060
:104BE0000700B0B104F00700C0F10800044404F06D
:104BF000070008B9012000E0002050B900BF502094
:104C000080F31188BFF34F8FBFF36F8F00BF00BFDA
:104C1000FEE7002C52D03748006884424ED8364E0A
:104C20003046056801E02E462D686868A04202D231
:104C300028680028F7D12D48006885423ED03068AA
:104C400000F10808286830606868001B102819D92E
:104C50002F1907F0070008B9012000E0002050B923
:104C600000BF502080F31188BFF34F8FBFF36F8FC9
:104C700000BF00BFFEE76868001B78606C603846C4
:104C8000FFF70AFD1B4968680968081A1949086096
:104C90000846006819490968884203D21548006827
:104CA000164908601249686809680843686000206E
:104CB000286013480068401C1149086001F0B0F8F2
:104CC00008F0070008B9012000E0002050B900BF3B
:104CD000502080F31188BFF34F8FBFF36F8F00BF59
:104CE00000BFFEE74046BDE8F08100005805002007
:104CF0006C0500205C0500205005002060050020A8
:104D000064050020001F4FF080730360001F21F036
:104D100001030360001F054B036014380260001F8D
:104D20006FF002030360203870470000E14A00087A
:104D300070477047002002490870024908707047A8
:104D4000DC040020C100002001460A69D1E90130DD
:104D50009860D1E9010358605068884201D18868A1
:104D60005060002008611068401E10601068704795
:104D7000034B0360034B0B608023136070470000FC
:104D8000D40E0020300F0020034B0360034B0B6058
:104D90004FF4807313607047301100208C11002095
:104DA00000F1080141604FF0FF31816000F108011E
:104DB000C1600161002101607047002101617047FD
:104DC00010B502460B685C1C0CB9106907E002F1D3
:104DD000080000E04068446824689C42FAD94468AE
:104DE0004C604C68A160886041600A611468641C72
:104DF000146010BD42684A6093688B609368596084
:104E00009160086103685B1C0360704700BF50201D
:104E100080F31188BFF34F8FBFF36F8F00BF0E4831
:104E20000068401C0C49086008460068012812D13F
:104E30000A480068C0B208B9012000E0002050B95B
:104E400000BF502080F31188BFF34F8FBFF36F8FE7
:104E500000BF00BFFEE770477005002004ED00E0D2
:104E60000D48006850B900BF502080F31188BFF38F
:104E70004F8FBFF36F8F00BF00BFFEE7064800688B
:104E8000401E054908600846006820B9002080F3EC
:104E9000118800BF00BF70477005002070B506463E
:104EA0003546002E44D0083D2C46224960680968EA
:104EB000084008B1012000E0002050B900BF502098
:104EC00080F31188BFF34F8FBFF36F8F00BF00BF18
:104ED000FEE7206808B9012000E0002050B900BFBB
:104EE000502080F31188BFF34F8FBFF36F8F00BF47
:104EF00000BFFEE70F49606809680840C0B120683C
:104F0000B0B90C49606809688843606000F07CF9BA
:104F10000949606809680844074908602046FFF7A6
:104F2000BBFB06480068401C0449086000F078FF9D
:104F300070BD00006C0500205C05002068050020A5
:104F400000204FF0E02108618861064800684FF4B6
:104F50007A71B0FBF1F0401E4FF0E021486107206C
:104F600008617047F804002070B5FBF7D9F90446D2
:104F7000102C16D304F1E02090F8F0531548007877
:104F8000854201DB012000E0002050B900BF502025
:104F900080F31188BFF34F8FBFF36F8F00BF00BF47
:104FA000FEE70D48006800F4E0600C49096888429B
:104FB00001D8012000E0002050B900BF502080F34C
:104FC0001188BFF34F8FBFF36F8F00BF00BFFEE7A5
:104FD00070BD0000740500200CED00E07805002095
:104FE000024600200BE0084B53F8303033B9064B33
:104FF00043F8301003EBC0035A6002E0401C08285D
:10500000F1D300BF70470000B80800202DE9F0413F
:1050100005460E4617462C46FFF7F8FE94F9440065
:10502000401C10B9002084F8440094F94500401C4D
:1050300010B9002084F84500FFF712FFA06B28B9D3
:105040003A46314604F1240000F062F82046FFF7AA
:1050500074FDBDE8F081000070B504460025D4B1B0
:105060001248006808B9012000E0002050B900BFD4
:10507000502080F31188BFF34F8FBFF36F8F00BFB5
:1050800000BFFEE700F0C0F800212046FFF782F8DD
:1050900000F0C6FE05463DB94FF080500449086057
:1050A000BFF34F8FBFF36F8F70BD0000340500203A
:1050B00004ED00E0034909680160034909684160A3
:1050C0007047000024050020100500200120014940
:1050D000086070472005002070B504460D4654B99D
:1050E00000BF502080F31188BFF34F8FBFF36F8F45
:1050F00000BF00BFFEE70548016818312046FFF7F2
:105100005FFE01212846FFF745F870BDFC04002032
:1051100070B505460E46144655B900BF502080F3C1
:105120001188BFF34F8FBFF36F8F00BF00BFFEE743
:105130000648016818312846FFF75CFE0CB14FF0B5
:10514000FF3621463046FFF725F870BDFC040020ED
:1051500010B586B000200590049003AA04A905A804
:10516000FFF706FE0022DDE904101346CDE9002119
:1051700002901EA11F48039A00F09EFC1E49086081
:105180000846006808B1012400E00024012C02D187
:1051900000F0C8FE0446012C15D100BF502080F35A
:1051A0001188BFF34F8FBFF36F8F00BF4FF0FF30F9
:1051B0001249086001201249086000201149086066
:1051C00000F072F810E0601C08B1012000E000203F
:1051D00050B900BF502080F31188BFF34F8FBFF349
:1051E0006F8F00BF00BFFEE706B010BD49444C45BD
:1051F0000000000021450008300500202C0500209B
:10520000180500201005002002480068401C0149D4
:1052100008607047340500201E48006818B101205E
:105220001D49086034E000201B4908601B480168E4
:105230000CE051B900BF502080F31188BFF34F8FAD
:10524000BFF36F8F00BF00BFFEE7491E01EB810077
:10525000134A52F8200008B9012000E0002000287D
:10526000E7D101EB81020E4B03EB820042685268EA
:10527000426000F108024368934202D142685268DA
:1052800042604268D268074B1A600448016000BF60
:105290007047000034050020200500201405002080
:1052A000F8080020FC0400201CB552480068524950
:1052B000884201D0012000E0002050B900BF5020FA
:1052C00080F31188BFF34F8FBFF36F8F00BF00BF14
:1052D000FEE7484800684849491E884201D001203D
:1052E00000E0002050B900BF502080F31188BFF3C8
:1052F0004F8FBFF36F8F00BF00BFFEE73F490846E7
:1053000000780190FF200A4610700846007800904F
:105310009DF8000000F0F0009DF80020904201D1BF
:10532000012000E0002050B900BF502080F3118818
:10533000BFF34F8FBFF36F8F00BF00BFFEE79DF835
:10534000000000F050002E4A107007202D4A106017
:1053500009E02C480068401E2A4A10609DF80000B1
:105360004006000E00909DF8000000F080008028AC
:10537000EFD024480068C0F10700042801D10120C3
:1053800000E0002050B900BF502080F31188BFF327
:105390004F8FBFF36F8F00BF00BFFEE71948006853
:1053A0000002184A10601046008800F4E0601060A7
:1053B000124A019810700F482030006840F47000C5
:1053C0000C49203108600846006840F070400860D1
:1053D000FFF7B6FD00200C490860FAF769FF0B489B
:1053E000006840F0404009490860FAF74DFF00208E
:1053F0001CBD000000ED00E071C20F4100E400E0C0
:1054000074050020780500207005002034EF00E0CE
:1054100010B500BF502080F31188BFF34F8FBFF34A
:105420006F8F00BF00F0BCFB18B14FF080500449F3
:10543000086000BF002080F3118800BF10BD00008D
:1054400004ED00E02DE9F84380460E4617461D4660
:10545000DDF82090B8F1000F01D0012000E000201D
:1054600050B900BF502080F31188BFF34F8FBFF3B6
:105470006F8F00BF00BFFEE70DB1012000E00020EC
:1054800050B900BF502080F31188BFF34F8FBFF396
:105490006F8F00BF00BFFEE707B10EB1012000E033
:1054A000002050B900BF502080F31188BFF34F8F08
:1054B000BFF36F8F00BF00BFFEE707B90EB9012031
:1054C00000E0002050B900BF502080F31188BFF3E6
:1054D0004F8FBFF36F8F00BF00BFFEE750200090DB
:1054E0000098502801D1012000E0002050B900BFF1
:1054F000502080F31188BFF34F8FBFF36F8F00BF31
:1055000000BFFEE700BF2C464CB1012084F84600E6
:105510004B463A46314640460094FFF715F8204680
:10552000BDE8F88370B505460E462C4654B900BF59
:10553000502080F31188BFF34F8FBFF36F8F00BFF0
:1055400000BFFEE7FFF762FCD4E90F12206801FB01
:105550000200A0600020A06320686060E06B401E35
:10556000226C216800FB0211E160FF2084F84400F6
:1055700084F845009EB9206908B9012000E00020A8
:10558000A8B904F1100000F0FFFB80B14FF080508B
:1055900009490860BFF34F8FBFF36F8F07E004F135
:1055A0001000FFF7FDFB04F12400FFF7F9FBFFF704
:1055B00057FC012070BD000004ED00E02DE9FF4321
:1055C00083B0064688461D464FF00009344654B95C
:1055D00000BF502080F31188BFF34F8FBFF36F8F50
:1055E00000BF00BFFEE7B8F1000F01D1206C08B981
:1055F000012000E0002050B900BF502080F3118846
:10560000BFF34F8FBFF36F8F00BF00BFFEE7022DC8
:1056100002D1E06B012801D1012000E0002050B947
:1056200000BF502080F31188BFF34F8FBFF36F8FFF
:1056300000BF00BFFEE700F09DFA08B9059808B961
:10564000012000E0002050B900BF502080F31188F5
:10565000BFF34F8FBFF36F8F00BF00BFFEE700BFE8
:10566000FFF7D4FBA06BE16B884201D3022D28D158
:105670002A4641462046FEF79AFE0746606A08B968
:10568000012000E0002068B904F1240000F07CFB58
:1056900088B14FF0805032490860BFF34F8FBFF39D
:1056A0006F8F08E03FB14FF080502D490860BFF385
:1056B0004F8FBFF36F8FFFF7D3FB012007B0BDE81B
:1056C000F083059818B9FFF7CBFB0020F6E7B9F196
:1056D000000F04D101A8FFF7EDFC4FF00109FFF71F
:1056E000BFFBFFF791FDFFF791FB94F94400401CCD
:1056F00010B9002084F8440094F94500401C10B90A
:10570000002084F84500FFF7ABFB05A901A800F0D5
:105710005BF9F0B92046FFF72CF8A0B104F11000B6
:105720000599FFF7D9FC2046FFF707FA00F078FB50
:10573000002895D14FF0805009490860BFF34F8F82
:10574000BFF36F8F8CE72046FFF7F7F900F068FB97
:1057500086E72046FFF7F1F900F062FB0020ADE795
:1057600004ED00E02DE9F84F07468A4690461E46B4
:105770003C4654B900BF502080F31188BFF34F8FCF
:10578000BFF36F8F00BF00BFFEE7BAF1000F01D17A
:10579000206C08B9012000E0002050B900BF502063
:1057A00080F31188BFF34F8FBFF36F8F00BF00BF2F
:1057B000FEE7022E02D1E06B012801D1012000E0BA
:1057C000002050B900BF502080F31188BFF34F8FE5
:1057D000BFF36F8F00BF00BFFEE7FFF7C5FB00BF41
:1057E0005021EFF3118081F31188BFF34F8FBFF386
:1057F0006F8F00BF0546A06BE16B884201D3022E7C
:1058000025D194F945B0A06B009032465146204610
:10581000FEF7CDFD0BF1010088B9606A08B90120DF
:1058200000E0002050B904F1240000F0ADFA28B1E6
:10583000B8F1000F02D00120C8F8000004E00BF11D
:10584000010040B284F845004FF0010901E04FF03B
:10585000000900BF85F3118800BF4846BDE8F88FF6
:105860002DE9F74183B005460E464FF000082C465F
:1058700054B900BF502080F31188BFF34F8FBFF39E
:105880006F8F00BF00BFFEE70EB9206C08B9012082
:1058900000E0002050B900BF502080F31188BFF312
:1058A0004F8FBFF36F8F00BF00BFFEE700F062F9BC
:1058B00008B9059808B9012000E0002050B900BFE0
:1058C000502080F31188BFF34F8FBFF36F8F00BF5D
:1058D00000BFFEE700BFFFF799FAA76BF7B13146AB
:1058E0002046FEF74FFD781EA063206908B901200D
:1058F00000E0002060B904F1100000F045FA38B172
:105900004FF080502F490860BFF34F8FBFF36F8F68
:10591000FFF7A6FA012006B0BDE8F081059818B996
:10592000FFF79EFA0020F6E7B8F1000F04D101A8B6
:10593000FFF7C0FB4FF00108FFF792FAFFF764FC96
:10594000FFF764FA94F94400401C10B9002084F871
:10595000440094F94500401C10B9002084F845002B
:10596000FFF77EFA05A901A800F02EF8F0B920464D
:10597000FEF7F2FEA0B104F124000599FFF7ACFB9D
:105980002046FFF7DAF800F04BFA0028A3D14FF0D9
:1059900080500C490860BFF34F8FBFF36F8F9AE7B9
:1059A0002046FFF7CAF800F03BFA94E72046FFF7DD
:1059B000C4F800F035FA2046FEF7CEFE00288AD063
:1059C0000020A8E704ED00E070B505460C4655B987
:1059D00000BF502080F31188BFF34F8FBFF36F8F4C
:1059E00000BF00BFFEE754B900BF502080F311880C
:1059F000BFF34F8FBFF36F8F00BF00BFFEE7FFF70E
:105A000005FA124802686868131A2068401C08B931
:105A1000002617E00E4928680968884204D06868A3
:105A2000904201D801260DE02068984207D92068ED
:105A3000C01A20602846FFF73DFB002602E0002048
:105A400020600126FFF70CFA304670BD10050020DB
:105A5000240500202DE9FF4F85B080468946174672
:105A6000DDE912ABB800FFF7A7F8064656B15C2097
:105A7000FFF7A2F804460CB1266304E03046FFF7B6
:105A80000DFA00E000248CB1002084F85900CDE923
:105A900000ABCDE902403A4649464046089BFEF736
:105AA00068FD2046FEF7B4FB012501E04FF0FF350D
:105AB000284609B0BDE8F08F2DE9F04F85B00746C4
:105AC000884691469A46DDE90EB6109C0EB101203B
:105AD00000E0002050B900BF502080F31188BFF3D0
